{
  "contractName": "Orario",
  "abi": [
    {
      "inputs": [
        {
          "internalType": "address",
          "name": "_userOwner",
          "type": "address"
        }
      ],
      "stateMutability": "nonpayable",
      "type": "constructor"
    },
    {
      "inputs": [
        {
          "internalType": "string",
          "name": "_info",
          "type": "string"
        },
        {
          "internalType": "address",
          "name": "caller",
          "type": "address"
        }
      ],
      "name": "store",
      "outputs": [],
      "stateMutability": "nonpayable",
      "type": "function"
    },
    {
      "inputs": [],
      "name": "retrieve",
      "outputs": [
        {
          "internalType": "string",
          "name": "_info",
          "type": "string"
        }
      ],
      "stateMutability": "view",
      "type": "function"
    }
  ],
  "bytecode": "0x608060405234801561000f575f80fd5b50604051610a19380380610a1983398181016040528101906100319190610114565b335f806101000a81548173ffffffffffffffffffffffffffffffffffffffff021916908373ffffffffffffffffffffffffffffffffffffffff1602179055508060015f6101000a81548173ffffffffffffffffffffffffffffffffffffffff021916908373ffffffffffffffffffffffffffffffffffffffff1602179055505061013f565b5f80fd5b5f73ffffffffffffffffffffffffffffffffffffffff82169050919050565b5f6100e3826100ba565b9050919050565b6100f3816100d9565b81146100fd575f80fd5b50565b5f8151905061010e816100ea565b92915050565b5f60208284031215610129576101286100b6565b5b5f61013684828501610100565b91505092915050565b6108cd8061014c5f395ff3fe608060405234801561000f575f80fd5b5060043610610034575f3560e01c80632e64cec114610038578063f0e1366d14610056575b5f80fd5b610040610072565b60405161004d91906102be565b60405180910390f35b610070600480360381019061006b9190610475565b610102565b005b606060028054610081906104fc565b80601f01602080910402602001604051908101604052809291908181526020018280546100ad906104fc565b80156100f85780601f106100cf576101008083540402835291602001916100f8565b820191905f5260205f20905b8154815290600101906020018083116100db57829003601f168201915b5050505050905090565b3373ffffffffffffffffffffffffffffffffffffffff165f8054906101000a900473ffffffffffffffffffffffffffffffffffffffff1673ffffffffffffffffffffffffffffffffffffffff161461018f576040517f08c379a000000000000000000000000000000000000000000000000000000000815260040161018690610576565b60405180910390fd5b8060015f9054906101000a900473ffffffffffffffffffffffffffffffffffffffff1673ffffffffffffffffffffffffffffffffffffffff168173ffffffffffffffffffffffffffffffffffffffff161461021f576040517f08c379a000000000000000000000000000000000000000000000000000000000815260040161021690610604565b60405180910390fd5b826002908161022e91906107c8565b50505050565b5f81519050919050565b5f82825260208201905092915050565b5f5b8381101561026b578082015181840152602081019050610250565b5f8484015250505050565b5f601f19601f8301169050919050565b5f61029082610234565b61029a818561023e565b93506102aa81856020860161024e565b6102b381610276565b840191505092915050565b5f6020820190508181035f8301526102d68184610286565b905092915050565b5f604051905090565b5f80fd5b5f80fd5b5f80fd5b5f80fd5b7f4e487b71000000000000000000000000000000000000000000000000000000005f52604160045260245ffd5b61032d82610276565b810181811067ffffffffffffffff8211171561034c5761034b6102f7565b5b80604052505050565b5f61035e6102de565b905061036a8282610324565b919050565b5f67ffffffffffffffff821115610389576103886102f7565b5b61039282610276565b9050602081019050919050565b828183375f83830152505050565b5f6103bf6103ba8461036f565b610355565b9050828152602081018484840111156103db576103da6102f3565b5b6103e684828561039f565b509392505050565b5f82601f830112610402576104016102ef565b5b81356104128482602086016103ad565b91505092915050565b5f73ffffffffffffffffffffffffffffffffffffffff82169050919050565b5f6104448261041b565b9050919050565b6104548161043a565b811461045e575f80fd5b50565b5f8135905061046f8161044b565b92915050565b5f806040838503121561048b5761048a6102e7565b5b5f83013567ffffffffffffffff8111156104a8576104a76102eb565b5b6104b4858286016103ee565b92505060206104c585828601610461565b9150509250929050565b7f4e487b71000000000000000000000000000000000000000000000000000000005f52602260045260245ffd5b5f600282049050600182168061051357607f821691505b602082108103610526576105256104cf565b5b50919050565b7f596f75206e65656420746f20757365206120666163746f7279000000000000005f82015250565b5f61056060198361023e565b915061056b8261052c565b602082019050919050565b5f6020820190508181035f83015261058d81610554565b9050919050565b7f596f7520617265206e6f7420746865206f776e6572206f662074686520636f6e5f8201527f7472616374000000000000000000000000000000000000000000000000000000602082015250565b5f6105ee60258361023e565b91506105f982610594565b604082019050919050565b5f6020820190508181035f83015261061b816105e2565b9050919050565b5f819050815f5260205f209050919050565b5f6020601f8301049050919050565b5f82821b905092915050565b5f6008830261067e7fffffffffffffffffffffffffffffffffffffffffffffffffffffffffffffffff82610643565b6106888683610643565b95508019841693508086168417925050509392505050565b5f819050919050565b5f819050919050565b5f6106cc6106c76106c2846106a0565b6106a9565b6106a0565b9050919050565b5f819050919050565b6106e5836106b2565b6106f96106f1826106d3565b84845461064f565b825550505050565b5f90565b61070d610701565b6107188184846106dc565b505050565b5b8181101561073b576107305f82610705565b60018101905061071e565b5050565b601f8211156107805761075181610622565b61075a84610634565b81016020851015610769578190505b61077d61077585610634565b83018261071d565b50505b505050565b5f82821c905092915050565b5f6107a05f1984600802610785565b1980831691505092915050565b5f6107b88383610791565b9150826002028217905092915050565b6107d182610234565b67ffffffffffffffff8111156107ea576107e96102f7565b5b6107f482546104fc565b6107ff82828561073f565b5f60209050601f831160018114610830575f841561081e578287015190505b61082885826107ad565b86555061088f565b601f19841661083e86610622565b5f5b8281101561086557848901518255600182019150602085019450602081019050610840565b86831015610882578489015161087e601f891682610791565b8355505b6001600288020188555050505b50505050505056fea2646970667358221220c991a4dcffda0226a42d55ef36c77ebdb254a7736ef5def7981b5c7167799df664736f6c63430008150033",
  "immutableReferences": {},
  "source": "// SPDX-License-Identifier: MIT \npragma solidity ^0.8.0;\n\ncontract Orario\n{\n    address private factory;\n    address private userOwner;\n    string private info;\n\n    constructor(address _userOwner)\n    {\n        factory = msg.sender;\n        userOwner = _userOwner;\n    }\n    modifier isFactory\n    {\n        require(factory==msg.sender,\"You need to use a factory\");\n        _;\n    }\n    modifier isOwner(address _userOwner)\n    {\n        require(_userOwner==userOwner,\"You are not the owner of the contract\");\n        _;\n    }\n    \n    function store(string memory _info,address caller) public isFactory isOwner(caller)\n    {\n        info = _info;\n    }\n    function retrieve() public view returns(string memory _info)\n    {\n        return(info);\n    }\n}",
  "sourcePath": "/home/enrico/universita/2anno/ethereum/progetto/truffle/contracts/orario.sol",
  "compiler": {
    "name": "solc",
    "version": "0.8.21+commit.d9974bed.Emscripten.clang"
  },
  "schemaVersion": "3.4.16",
  "updatedAt": "2024-03-14T08:06:51.220Z",
  "devdoc": {
    "kind": "dev",
    "methods": {},
    "version": 1
  },
  "userdoc": {
    "kind": "user",
    "methods": {},
    "version": 1
  }
}