{
  "contractName": "orarioFactory",
  "abi": [
    {
      "inputs": [],
      "stateMutability": "nonpayable",
      "type": "constructor"
    },
    {
      "inputs": [],
      "name": "createOrarioDocente",
      "outputs": [],
      "stateMutability": "nonpayable",
      "type": "function"
    },
    {
      "inputs": [
        {
          "internalType": "address",
          "name": "_account",
          "type": "address"
        }
      ],
      "name": "getOrario",
      "outputs": [
        {
          "internalType": "string",
          "name": "",
          "type": "string"
        }
      ],
      "stateMutability": "view",
      "type": "function",
      "constant": true
    },
    {
      "inputs": [
        {
          "internalType": "string",
          "name": "newInfo",
          "type": "string"
        }
      ],
      "name": "modifyOrarioDocente",
      "outputs": [],
      "stateMutability": "nonpayable",
      "type": "function"
    }
  ],
  "bytecode": "0x608060405234801561001057600080fd5b50336000806101000a81548173ffffffffffffffffffffffffffffffffffffffff021916908373ffffffffffffffffffffffffffffffffffffffff160217905550610efe806100606000396000f3fe608060405234801561001057600080fd5b50600436106100415760003560e01c806376ad6b1814610046578063b109ac7b14610062578063f1aa98b81461006c575b600080fd5b610060600480360381019061005b9190610424565b61009c565b005b61006a61016b565b005b610086600480360381019061008191906103fb565b61021e565b6040516100939190610509565b60405180910390f35b600160003373ffffffffffffffffffffffffffffffffffffffff1673ffffffffffffffffffffffffffffffffffffffff16815260200190815260200160002060009054906101000a900473ffffffffffffffffffffffffffffffffffffffff1673ffffffffffffffffffffffffffffffffffffffff1663f0e1366d82336040518363ffffffff1660e01b815260040161013692919061052b565b600060405180830381600087803b15801561015057600080fd5b505af1158015610164573d6000803e3d6000fd5b5050505050565b3360405161017890610309565b61018291906104ee565b604051809103906000f08015801561019e573d6000803e3d6000fd5b50600160003373ffffffffffffffffffffffffffffffffffffffff1673ffffffffffffffffffffffffffffffffffffffff16815260200190815260200160002060006101000a81548173ffffffffffffffffffffffffffffffffffffffff021916908373ffffffffffffffffffffffffffffffffffffffff160217905550565b6060600160008373ffffffffffffffffffffffffffffffffffffffff1673ffffffffffffffffffffffffffffffffffffffff16815260200190815260200160002060009054906101000a900473ffffffffffffffffffffffffffffffffffffffff1673ffffffffffffffffffffffffffffffffffffffff16632e64cec16040518163ffffffff1660e01b815260040160006040518083038186803b1580156102c557600080fd5b505afa1580156102d9573d6000803e3d6000fd5b505050506040513d6000823e3d601f19601f820116820180604052508101906103029190610465565b9050919050565b610825806106a483390190565b60006103296103248461058c565b61055b565b90508281526020810184848401111561034157600080fd5b61034c84828561060a565b509392505050565b60006103676103628461058c565b61055b565b90508281526020810184848401111561037f57600080fd5b61038a848285610619565b509392505050565b6000813590506103a18161068c565b92915050565b600082601f8301126103b857600080fd5b81356103c8848260208601610316565b91505092915050565b600082601f8301126103e257600080fd5b81516103f2848260208601610354565b91505092915050565b60006020828403121561040d57600080fd5b600061041b84828501610392565b91505092915050565b60006020828403121561043657600080fd5b600082013567ffffffffffffffff81111561045057600080fd5b61045c848285016103a7565b91505092915050565b60006020828403121561047757600080fd5b600082015167ffffffffffffffff81111561049157600080fd5b61049d848285016103d1565b91505092915050565b6104af816105d8565b82525050565b60006104c0826105bc565b6104ca81856105c7565b93506104da818560208601610619565b6104e38161067b565b840191505092915050565b600060208201905061050360008301846104a6565b92915050565b6000602082019050818103600083015261052381846104b5565b905092915050565b6000604082019050818103600083015261054581856104b5565b905061055460208301846104a6565b9392505050565b6000604051905081810181811067ffffffffffffffff821117156105825761058161064c565b5b8060405250919050565b600067ffffffffffffffff8211156105a7576105a661064c565b5b601f19601f8301169050602081019050919050565b600081519050919050565b600082825260208201905092915050565b60006105e3826105ea565b9050919050565b600073ffffffffffffffffffffffffffffffffffffffff82169050919050565b82818337600083830152505050565b60005b8381101561063757808201518184015260208101905061061c565b83811115610646576000848401525b50505050565b7f4e487b7100000000000000000000000000000000000000000000000000000000600052604160045260246000fd5b6000601f19601f8301169050919050565b610695816105d8565b81146106a057600080fd5b5056fe608060405234801561001057600080fd5b50604051610825380380610825833981810160405281019061003291906100ce565b336000806101000a81548173ffffffffffffffffffffffffffffffffffffffff021916908373ffffffffffffffffffffffffffffffffffffffff16021790555080600160006101000a81548173ffffffffffffffffffffffffffffffffffffffff021916908373ffffffffffffffffffffffffffffffffffffffff16021790555050610140565b6000815190506100c881610129565b92915050565b6000602082840312156100e057600080fd5b60006100ee848285016100b9565b91505092915050565b600061010282610109565b9050919050565b600073ffffffffffffffffffffffffffffffffffffffff82169050919050565b610132816100f7565b811461013d57600080fd5b50565b6106d68061014f6000396000f3fe608060405234801561001057600080fd5b50600436106100365760003560e01c80632e64cec11461003b578063f0e1366d14610059575b600080fd5b610043610075565b6040516100509190610495565b60405180910390f35b610073600480360381019061006e9190610362565b610107565b005b606060028054610084906105e8565b80601f01602080910402602001604051908101604052809291908181526020018280546100b0906105e8565b80156100fd5780601f106100d2576101008083540402835291602001916100fd565b820191906000526020600020905b8154815290600101906020018083116100e057829003601f168201915b5050505050905090565b3373ffffffffffffffffffffffffffffffffffffffff1660008054906101000a900473ffffffffffffffffffffffffffffffffffffffff1673ffffffffffffffffffffffffffffffffffffffff1614610195576040517f08c379a000000000000000000000000000000000000000000000000000000000815260040161018c906104b7565b60405180910390fd5b80600160009054906101000a900473ffffffffffffffffffffffffffffffffffffffff1673ffffffffffffffffffffffffffffffffffffffff168173ffffffffffffffffffffffffffffffffffffffff1614610226576040517f08c379a000000000000000000000000000000000000000000000000000000000815260040161021d906104d7565b60405180910390fd5b826002908051906020019061023c929190610242565b50505050565b82805461024e906105e8565b90600052602060002090601f01602090048101928261027057600085556102b7565b82601f1061028957805160ff19168380011785556102b7565b828001600101855582156102b7579182015b828111156102b657825182559160200191906001019061029b565b5b5090506102c491906102c8565b5090565b5b808211156102e15760008160009055506001016102c9565b5090565b60006102f86102f384610528565b6104f7565b90508281526020810184848401111561031057600080fd5b61031b8482856105a6565b509392505050565b60008135905061033281610689565b92915050565b600082601f83011261034957600080fd5b81356103598482602086016102e5565b91505092915050565b6000806040838503121561037557600080fd5b600083013567ffffffffffffffff81111561038f57600080fd5b61039b85828601610338565b92505060206103ac85828601610323565b9150509250929050565b60006103c182610558565b6103cb8185610563565b93506103db8185602086016105b5565b6103e481610678565b840191505092915050565b60006103fc601983610563565b91507f596f75206e65656420746f20757365206120666163746f7279000000000000006000830152602082019050919050565b600061043c602583610563565b91507f596f7520617265206e6f7420746865206f776e6572206f662074686520636f6e60008301527f74726163740000000000000000000000000000000000000000000000000000006020830152604082019050919050565b600060208201905081810360008301526104af81846103b6565b905092915050565b600060208201905081810360008301526104d0816103ef565b9050919050565b600060208201905081810360008301526104f08161042f565b9050919050565b6000604051905081810181811067ffffffffffffffff8211171561051e5761051d610649565b5b8060405250919050565b600067ffffffffffffffff82111561054357610542610649565b5b601f19601f8301169050602081019050919050565b600081519050919050565b600082825260208201905092915050565b600061057f82610586565b9050919050565b600073ffffffffffffffffffffffffffffffffffffffff82169050919050565b82818337600083830152505050565b60005b838110156105d35780820151818401526020810190506105b8565b838111156105e2576000848401525b50505050565b6000600282049050600182168061060057607f821691505b602082108114156106145761061361061a565b5b50919050565b7f4e487b7100000000000000000000000000000000000000000000000000000000600052602260045260246000fd5b7f4e487b7100000000000000000000000000000000000000000000000000000000600052604160045260246000fd5b6000601f19601f8301169050919050565b61069281610574565b811461069d57600080fd5b5056fea26469706673582212206ea2e1fd4b3c1a02e4aa11bd6921e103eaa5a1b8520fb269685578eef5a3859664736f6c63430008000033a2646970667358221220600032c7a055092e6160befe9b5e97e65e2b9078fd51e9febb2d9af2d7a2d6d264736f6c63430008000033",
  "immutableReferences": {},
  "source": "// SPDX-License-Identifier: MIT\npragma solidity ^0.8.0;\n\nimport \"./orario.sol\";\n\ncontract orarioFactory\n{\n    address owner;\n    mapping (address => Orario) orariDocenti;\n    constructor()\n    {\n        owner = msg.sender;\n    }\n\n    function createOrarioDocente() public\n    {\n        //require(orariDocenti[msg.sender] == Orario(),\"Esiste gia il contratto\");\n        orariDocenti[msg.sender] = new Orario(msg.sender);\n    }\n\n    function getOrario(address _account) public view returns (string memory)\n    {\n        //require(bytes(orariDocenti[_account].retrieve()).length != 0,\"Non esiste il contratto\");\n        return (orariDocenti[_account].retrieve());\n    }\n    function modifyOrarioDocente(string memory newInfo) public \n    {\n        //require(bytes(orariDocenti[msg.sender].retrieve()).length !=0,\"Non esiste il contratto\");\n        orariDocenti[msg.sender].store(newInfo,msg.sender);\n    }\n\n}",
  "sourcePath": "/home/enrico/universita/2anno/ethereum/progetto/truffle/contracts/orarioFactory.sol",
  "compiler": {
    "name": "solc",
    "version": "0.8.0+commit.c7dfd78e.Emscripten.clang"
  },
  "schemaVersion": "3.4.16",
  "updatedAt": "2024-04-24T13:28:00.409Z",
  "networkType": "ethereum",
  "devdoc": {
    "kind": "dev",
    "methods": {},
    "version": 1
  },
  "userdoc": {
    "kind": "user",
    "methods": {},
    "version": 1
  }
}